:100000000C9400010C94B60E0C948F0E0C944303C8
:100010000C9443030C9443030C940B100C94280190
:100020000C9428010C9428010C9428010C942801AC
:100030000C9428010C9428010C9428010C9428019C
:100040000C94450E0C9428010C94450D0C941F0D36
:100050000C9428010C9428010C9428010C9428017C
:100060000C94DD0E0C94280124504D544B32323048
:100070002C313030302A0024504D544B3331342C45
:10008000302C312C302C312C302C302C302C302C8E
:10009000302C302C302C302C302C302C302C302C80
:1000A000302C302C302A002C206261743D00206EF0
:1000B0006F5361743D002C207361743D002C2073DC
:1000C00070643D002C206361703D002C20616C74D5
:1000D0003D002C206C6F6E3D002C206C61743D0047
:1000E00073796E635361743D0000000000230026A5
:1000F00000290053656E736F724D61783A200002DB
:1001000004086269617320783D006D670A00097A0E
:100110003D0009793D006269617320783D004552D8
:10012000523A20466C754D4D4138363578206E6F09
:10013000742070726573656E742100636F6E76460D
:100140006163743D00667265652052616D3A2000FE
:1001500025200020426174746572793A20002C00D9
:100160002C0073707572696F7573207472616E7391
:1001700069656E7420696E746572727570740A00B8
:10018000534C4545502F4143544956450A0073701E
:100190007572696F7573205352435F4452445920FE
:1001A000696E746572727570740A00000000002434
:1001B0000027002A0000000000250028002B000472
:1001C00004040404040404020202020202030303FE
:1001D00003030301020408102040800102040810F8
:1001E00020010204081020000000080002010000A5
:1001F0000304070000000000000000002A1A491450
:1002000011241FBECFEFD8E0DEBFCDBF12E0A0E0CB
:10021000B1E0ECE9F6E402C005900D92A031B1071F
:10022000D9F725E0A0E1B2E001C01D92AD34B207DC
:10023000E1F710E0CFEFD0E004C02197FE010E946B
:10024000AC1FCE3FD107C9F70E9455140C9441232F
:100250000C9400002091690230916A022817390736
:1002600071F49091680280916702981741F0E091D3
:100270006802F0E0E95DFD4F808190E008958FEF26
:100280009FEF089508951F93CF93DF93DC015C9651
:100290002D913C915D972115310539F481E090E075
:1002A00013969C938E9312973DC05196ED91FC91BD
:1002B000529750969C915097892F80951FB75E96C4
:1002C0004C915E9741FB772770F941FD6095F8945A
:1002D0004081772311F0492B01C048234083E90175
:1002E0002197F1F748E0508160FF02C0592B01C00F
:1002F00058235083E9012197F1F76695415099F70A
:10030000772321F090818923808303C08081982BFB
:1003100090831FBF5C968D919C915D970197F1F73B
:1003200021E030E0C901DF91CF911F910895209124
:10033000690230916A022817390771F480916702C7
:100340002091680290E0805C9F4F821B910960E4DD
:1003500070E00E94841F089580E090E0089520914D
:10036000690230916A0228173907B9F4909168023E
:1003700080916702981789F0E0916802F0E0E95DEA
:10038000FD4F80812091680230E02F5F3F4F2F7337
:1003900033272093680290E008958FEF9FEF089530
:1003A00021E131E0FC0131832083E0916902F09189
:1003B0006A02E817F90759F4A389B4899C918589E1
:1003C000809589238C9310926A0210926902089595
:1003D000089580E090E0089581E080936D02089593
:1003E00081E080936D020895EF92FF920F931F9327
:1003F000CF937C0100E010E0F701C491CC2329F0F9
:100400008C2F0E94EE10CA3251F40031110594F481
:1004100061E671E086E493E00E941D0D0BC0C432DA
:1004200029F02C2FCC0F330B022713278FEFE81A5C
:10043000F80AE2CF60E170E0C801CF911F910F91FF
:10044000FF90EF900C9444128AE20E9422108E7F5B
:10045000682F8AE20C944010CF93DF93EC019A014D
:10046000AB011B8E1A8E198E188E1F8A1E8A60ECA5
:1004700076EC8DE290E00E946E1DF901243031058A
:1004800018F0C901039702C081E090E09D8F8C8F26
:100490006C85663108F069C0C901969587958431ED
:1004A000910510F0439702C081E090E09F8B8E8B06
:1004B000369718F0C901059702C081E090E0998F46
:1004C000888FC901880F991F280F391F36952795E6
:1004D000369527952D30310518F02C50310902C082
:1004E00021E030E03B8F2A8F90916800683050F017
:1004F00021E06E3008F420E081E001C0880F2A95E9
:10050000EAF701C084E0892B809368009C859830CD
:1005100038F09E3040F0963148F020E030E008C0DE
:100520002DE630E005C02BE630E002C02CE630E0DE
:100530003C8B2B8B983030F481E001C0880F9A956A
:10054000EAF70EC0292F30E09E3018F42850310908
:1005500002C02E50310981E001C0880F2A95EAF7C8
:100560008D8B8C8D9D8D0197F1F78A8D9B8D892BBD
:1005700009F1E0916902F0916A02EC17FD07D1F0F0
:10058000309739F0A389B4899C9185898095892316
:100590008C938E8D8E7F8E8F1092670210926802E0
:1005A000D0936A02C0936902EB89FC8990818D899E
:1005B000892B8083DF91CF9108950F931F93CF9361
:1005C000DF93EC01162F042F1B821A8288EE93E032
:1005D000A0E0B0E08C839D83AE83BF8381E191E096
:1005E000998388831F8A1E8A198E188E1B8E1A8EF5
:1005F0001D8E1C8E6E8D6E7F20FB61F96E8F669551
:10060000617081E06827842F0E94770D61E0802F60
:100610000E94C30D402F50E0FA01ED52FE4FE491CD
:10062000E88BFA01E154FE4FE491F0E0EE0FFF1F7A
:10063000EB54FE4F859194919A8B898B60E0812FCA
:100640000E94C30D8E8D81FD04C061E0812F0E9448
:10065000770D1C87612F70E0FB01ED52FE4FE49196
:10066000ED87FB01E154FE4FE491F0E0EE0FFF1F38
:10067000E751FF4F859194919F878E87DF91CF91AE
:100680001F910F9108951F920F920FB60F92112490
:100690002F933F934F935F936F937F938F939F938A
:1006A000AF93BF93EF93FF93E0916902F0916A02D9
:1006B000309709F451C0968DA685B785858591FF41
:1006C00004C09C91892329F447C09C91892309F097
:1006D00043C0A389B4899C918589809589238C9393
:1006E000868997890197F1F7608D718DA685B78509
:1006F000558538E020E0CB010197F1F7822F90E09B
:1007000095958795282F4C91452309F02068315005
:1007100091F7868D81FD20958091670290E001968A
:100720008F73992730916802381749F0A0916702BA
:10073000B0E0A95DBD4F2C938093670203C0868D06
:100740008160868F828D938D0197F1F7A389B4899B
:100750009C918589892B8C93FF91EF91BF91AF91EB
:100760009F918F917F916F915F914F913F912F91C9
:100770000F900FBE0F901F9018950F931F93CF935C
:10078000DF93CDB7DEB768970FB6F894DEBF0FBE24
:10079000CDBFEFEEF3E083811F928F9384811F9290
:1007A0008F9385811F928F9381818F9380818F9307
:1007B00086811F928F9387811F928F9383E691E0AA
:1007C0009F938F938E010F5F1F4F1F930F930E9474
:1007D000A020B80186E493E00E941D0D0FB6F894A6
:1007E000DEBF0FBECDBF68960FB6F894DEBF0FBE5A
:1007F000CDBFDF91CF911F910F910895CF93DF93DC
:10080000FC018491EF012196882321F00E94EE10D3
:10081000FE01F7CFDF91CF9108952F923F924F9233
:100820005F926F927F928F929F92AF92BF92CF9280
:10083000DF92EF92FF920F931F93CF93DF9300D03D
:100840001F92CDB7DEB70E94390E4B015C0120ED3F
:10085000E22E27E0F22E712C1A8236E0632E442419
:10086000439445E0542E0E94390E681979096E159B
:100870007F0508F0D4C386E493E00E94540B181659
:1008800019064CF40E94390E4B015C0194E6E92EE6
:10089000F12C7724739404E0202E82E0382E86E435
:1008A00093E00E94540B892BF1F286E493E00E94BE
:1008B000320B8B83843209F48FC3E0919604853226
:1008C00034F48A3079F08D3009F093C30BC02B815A
:1008D0002A3241F02C3209F08CC3809183048227A4
:1008E00080938304EF3008F062C3F0E0EB57FB4FD6
:1008F000108280918404882309F438C120918504F2
:100900003FEB320F822F022E000C990B363010F481
:10091000C79707C02156263018F48755910901C0A2
:10092000C097282F2295207F309186044FEB430FEC
:10093000832F032E000C990B463010F4C79707C085
:100940003156363018F48755910901C0C097820F8F
:100950009091830489132BC380919404813001F515
:100960004091330450913404609135047091360401
:1009700040932F04509330046093310470933204F9
:1009800040913B0450913C0460913D0470913E04C1
:1009900040933704509338046093390470933A04B9
:1009A00090919704992309F402C3409177045091E0
:1009B00078046091790470917A04409373045093A1
:1009C0007404609375047093760440917F04509191
:1009D0008004609181047091820440937B04509361
:1009E0007C0460937D0470937E04882309F464C0C2
:1009F000813009F0B9C08091330490913404A09102
:100A00003504B091360480932F0490933004A09362
:100A10003104B093320480913B0490913C04A09146
:100A20003D04B0913E048093370490933804A09322
:100A30003904B0933A048091430490914404A09106
:100A40004504B091460480933F0490934004A093E2
:100A50004104B093420480914B0490914C04A091C6
:100A60004D04B0914E048093470490934804A093A2
:100A70004904B0934A0480915B0490915C04A09176
:100A80005D04B0915E048093570490935804A09342
:100A90005904B0935A048091630490916404A09126
:100AA0006504B091660480935F0490936004A09302
:100AB0006104B093620458C080915304909154042F
:100AC000A0915504B091560480934F049093500424
:100AD000A0935104B0935204809133049091340454
:100AE000A0913504B091360480932F049093300484
:100AF000A0933104B0933204809143049091440454
:100B0000A0914504B091460480933F049093400423
:100B1000A0934104B093420480914B0490914C0403
:100B2000A0914D04B0914E048093470490934804E3
:100B3000A0934904B0934A04809171049091720487
:100B40009093700480936F0480916B0490916C0477
:100B5000A0916D04B0916E04809367049093680433
:100B6000A0936904B0936A0481E022C200919504C5
:100B7000011113C062E871E085E894E00E943D1421
:100B8000892B09F4D9C468E871E085E894E00E94F3
:100B90003D14892B09F4D0C4D2C42091940426308A
:100BA00009F405C230918504332309F400C240E200
:100BB000249FC001112410E0802B912B84349105D7
:100BC00009F410C108F065C08232910509F4D5C05E
:100BD00058F58530910509F410C188F482309105EB
:100BE00009F4D0C020F4019709F4B2C0E0C1833009
:100BF000910509F4DCC0049709F4F4C0D8C1883029
:100C0000910509F445C140F48630910509F42FC1DE
:100C1000079709F433C1CBC18930910509F443C169
:100C2000819709F495C0C3C18732910509F409C1C0
:100C300070F48432910509F4BAC008F4A3C0853277
:100C4000910509F4CFC0869709F4D7C0B0C18134AB
:100C5000910509F47DC0A0F48832910509F4FCC027
:100C6000899709F0A4C185E894E00E943A13609343
:100C70003B0470933C0480933D0490933E0497C1E1
:100C80008234910509F47EC08334910509F48FC044
:100C90008EC18039910509F43EC158F5843891051B
:100CA00009F439C178F48634910509F4C1C008F417
:100CB000A4C08734910509F4E1C08238910509F494
:100CC000FDC075C18B38910509F42EC148F48738F1
:100CD000910509F429C18838910509F41CC167C13F
:100CE0008C38910509F417C18F38910509F41CC19E
:100CF0005EC1883A910509F40EC198F4823A9105D3
:100D000009F4DCC028F48339910509F40DC14FC101
:100D1000843A910509F4FFC0873A910509F404C1AA
:100D200046C18F3A910509F4FFC048F48B3A91050A
:100D300009F4FAC08C3A910509F4EDC038C1803B42
:100D4000910509F4E8C0833B910509F4EDC02FC17A
:100D50000E946413609333047093340480933504C9
:100D6000909336040E94390E609377047093780450
:100D70008093790490937A041AC181E0313409F0A8
:100D800079C079C00E94BE136093430470934404F9
:100D900080934504909346040E94390E60937F042B
:100DA00070938004809381049093820400C1333552
:100DB00009F0FDC08091430490914404A091450442
:100DC000B0914604B095A095909581959F4FAF4FF7
:100DD000BF4F8093430490934404A0934504B09381
:100DE0004604E5C00E94BE1360934B0470934C040C
:100DF00080934D0490934E04DAC0373509F0D7C084
:100E000080914B0490914C04A0914D04B0914E04FC
:100E1000B095A095909581959F4FAF4FBF4F809310
:100E20004B0490934C04A0934D04B0934E04BFC068
:100E300045E050E065E874E088E994E00E94912084
:100E4000B6C00E94641360935B0470935C0480934B
:100E50005D0490935E04ABC00E94641360936304CE
:100E6000709364048093650490936604A0C081E04D
:100E700031330CF480E08093970499C085E894E0C6
:100E80000E940E1C992790937204809371048FC066
:100E90000E94641360936B0470936C0480936D04E0
:100EA00090936E0484C00E94641360935304709303
:100EB0005404809355049093560479C085E894E0D7
:100EC00029830E940E1C81502981882319F0253026
:100ED000C9F41BC0243059F4EEE9F4E011921192E8
:100EE0001192119294E0EE3CF907C1F70BC0EEECC1
:100EF000F4E0119211921192119244E0EE3FF40746
:100F0000C1F7E5CF880F880F03C0880F880F845F73
:100F1000809300054CC085E894E00E940E1C9093DD
:100F2000FF048093FE0443C085E894E00E940E1CF9
:100F30004091000550E0811116C0C801079797FD48
:100F400003969595879595958795840F951FFC0138
:100F5000EE0FFF1FEE0FFF1FE256FB4F10821182B4
:100F60001282138224C098012750310937FF02C032
:100F70002D5F3F4F3595279535952795240F351FC4
:100F8000F901EE0FFF1FEE0FFF1FE256FB4F9927EF
:100F9000880F991FD090FE04C12C8C299D29092E01
:100FA000000CAA0BBB0B80839183A283B38380E0E8
:100FB000909195049F5F909395041092960491E010
:100FC0002B812A3209F090E090938404882309F45D
:100FD00066CC41E04A8363CC10929604109295044B
:100FE00010928304609294041092840410929704E7
:100FF00056CCEE3048F481E08E0F80939604F0E0FA
:10100000EB57FB4F2B81208380918404811147CCC7
:10101000809183042B8182278093830440CC7110BC
:1010200035C061E08AE00E94770D0E94390E6B01A5
:101030007C010E94390ECB018C199D0980379741A4
:1010400008F586E493E00E94540B1816190634F450
:1010500086E493E00E94320B8A9739F064E670E0F0
:1010600080E090E00E94FF0DE4CF86EA91E00E94CC
:10107000551287E790E00E94F40188E690E00E9414
:10108000F40104C060E08AE00E94770D809037048C
:1010900090903804A0903904B0903A04C0902F0486
:1010A000D0903004E0903104F090320480917304C9
:1010B00090917404A0917504B09176048F3F4FEF26
:1010C0009407A407B40781F00E94390E00917304BD
:1010D000109174042091750430917604DC01CB01E9
:1010E000801B910BA20BB30B8093230290932402DD
:1010F000A0932502B0932602C501B40124E630E096
:1011000040E050E00E94D71D6135710581059105D1
:1011100018F02CE637E002C020ED37E0620F731FB5
:101120007093F0036093EF0386EF93E0892B99F0BF
:1011300024E6222E312C412C512CC501B401A201F0
:1011400091010E94D71DCA01B901A20191010E941B
:10115000D71D6093F60385EF93E0892B51F0C5010D
:10116000B40120E137E240E050E00E94D71D209317
:10117000F50384EF93E0892B51F0C701B60120E419
:1011800032E44FE050E00E94D71D2093F40383EF38
:1011900093E0892B91F0C701B60120E137E240E0EE
:1011A00050E00E94D71DCA01B90124E630E040E0BA
:1011B00050E00E94D71D6093F30382EF93E0892BE8
:1011C00099F094E6892E912CA12CB12CC701B6017F
:1011D000A50194010E94D71DCA01B901A50194017E
:1011E0000E94D71D6093F20381EF93E0892B51F0A9
:1011F000C701B60124E630E040E050E00E94D71D70
:101200006093F1038A81882309F4F3C0C0903F04FE
:10121000D0904004E0904104F09042048090470454
:1012200090904804A0904904B0904A0480917B04B7
:1012300090917C04A0917D04B0917E048F3F2FEFAC
:101240009207A207B20781F00E94390E00917B0439
:1012500010917C0420917D0430917E04DC01CB014F
:10126000801B910BA20BB30B80932302909324025B
:10127000A0932502B09326024FEFC41649ECD40682
:101280004AE9E4064BE3F40659F0C701B6010E94AF
:101290003B1C20E034E244E759E40E94751E04C080
:1012A00060E070E08AE794E460931702709318029C
:1012B0008093190290931A028FEFC81689ECD80612
:1012C0008AE9E8068BE3F80659F0C501B4010E94EB
:1012D0003B1C20E034E244E759E40E94751E04C040
:1012E00060E070E08AE794E460931B0270931C0254
:1012F00080931D0290931E0280916F049091700460
:101300008F3F910511F0182F01C010E010931602C5
:1013100060914F0470915004809151049091520457
:101320006F3F29EC72072AE982072BE3920749F005
:101330000E943B1C20E030E048EC52E40E94751E05
:1013400004C060E074E284E799E40E94221F0E94D6
:10135000E71E9B0177FF04C022273327261B370B8C
:101360003093150220931402609157047091580431
:101370008091590490915A046F3F49EC74074AE9EF
:1013800084074BE39407E9F00E94391C20E030E029
:1013900048EC52E40E94751E6B017C0120E030E0B5
:1013A00040E85FEB0E94341C882389F026E53EE08C
:1013B0004DEE5FE3C701B6010E949A1C6B017C01F0
:1013C00006C0C12CD12C80E8E82E8FEBF82EC70187
:1013D000B6010E94221F0E94EE1E709313026093BA
:1013E000120280911102810F80931102109210025B
:1013F00005C0809110028F5F809310020E94BD0390
:101400008A81882309F466C080EE90E00E94FE0382
:101410006091110270E080E090E04AE00E94B91112
:1014200089ED90E00E94FE0360911702709118020E
:101430008091190290911A0247E00E94641282ED95
:1014400090E00E94FE0360911B0270911C0280914B
:101450001D0290911E0247E00E9464128BEC90E006
:101460000E94FE03609114027091150280E090E0EA
:101470004AE00E94B91184EC90E00E94FE03609162
:101480005F047091600480916104909162042AE588
:1014900030E040E050E00E94D71DCA01B9016370FE
:1014A0007727882799274AE00E94B9118DEB90E0B1
:1014B0000E94FE03609112027091130280E090E09E
:1014C0004AE00E94B91186EB90E00E94FE03609111
:1014D000160206C08EEA90E00E94FE0360911002A0
:1014E00070E080E090E04AE00E94B91187EA90E065
:1014F0000E94FE0360916E0270E080E090E04AE09E
:101500000E94B9110E943E1286E493E00E94D20B21
:10151000711006C09A81992349F083E090E052C08F
:101520002A81211106C082E090E04CC080E090E06A
:1015300049C081E090E046C04092940438CD60EB11
:1015400071E085E894E00E943D14892B19F4109213
:1015500094042DCD6EE871E085E894E00E943D147E
:10156000892B19F43092940422CD64E971E085E866
:1015700094E00E943D14892B09F16AE971E085E845
:1015800094E00E943D14892BC9F066EB71E085E878
:1015900094E00E943D14892B19F42092940407CD05
:1015A00060EA71E085E894E00E943D14892B19F40B
:1015B00050929404FCCC60929404F9CC43E04093A4
:1015C0009404F5CC0F900F900F90DF91CF911F9165
:1015D0000F91FF90EF90DF90CF90BF90AF909F90D2
:1015E0008F907F906F905F904F903F902F900895D5
:1015F000CF92DF92EF92FF920F931F93CF93DF93DF
:101600006C017A018B01C0E0D0E0CE15DF0589F0D6
:10161000D8016D918D01D601ED91FC910190F08181
:10162000E02DC6010995892B11F47E0102C0219697
:10163000ECCFC701DF91CF911F910F91FF90EF90F9
:10164000DF90CF900895FC01538D448D252F30E01D
:10165000842F90E0821B930B541710F0CF960895BF
:1016600001970895FC01918D828D981761F0828D0C
:10167000DF01A80FB11D5D968C91928D9F5F9F73C6
:10168000928F90E008958FEF9FEF0895FC01918D68
:10169000828D981731F0828DE80FF11D858D90E0D5
:1016A00008958FEF9FEF0895FC01918D228D892F72
:1016B00090E0805C9F4F821B91098F73992708955A
:1016C00086E493E00E94540B21E0892B09F420E08A
:1016D000822F0895FC01848DDF01A80FB11DA35A4C
:1016E000BF4F2C91848D90E001968F739927848F42
:1016F000A689B7892C93A089B1898C9180648C9339
:10170000938D848D981306C00288F389E02D808123
:101710008F7D80830895EF92FF920F931F93CF9355
:10172000DF93EC0181E0888F9B8D8C8D981305C031
:10173000E889F989808185FD24C0F62E0B8D10E0A3
:101740000F5F1F4F0F731127E02E8C8DE8120CC016
:101750000FB607FCFACFE889F989808185FFF5CFBC
:10176000CE010E946A0BF1CF8B8DFE01E80FF11DB7
:10177000E35AFF4FF0820B8FEA89FB8980818062F8
:1017800007C0EE89FF896083E889F98980818064D8
:10179000808381E090E0DF91CF911F910F91FF90C6
:1017A000EF900895CF93DF93EC01888D8823C9F0E3
:1017B000EA89FB89808185FD05C0A889B9898C915A
:1017C00086FD0FC00FB607FCF5CF808185FFF2CFF5
:1017D000A889B9898C9185FFEDCFCE010E946A0B53
:1017E000E7CFDF91CF91089580E090E0892B29F039
:1017F0000E94600B81110C94000008959FB7F8942B
:101800004091D7025091D8026091D9027091DA02CA
:1018100086B5A89B06C08F3F21F04F5F5F4F6F4F8B
:101820007F4F9FBF762F652F542F44279A01AB011E
:10183000280F311D411D511DA5E0B0E00E948D1DF6
:101840000895089585ED8093BC008091BC0084FDCF
:10185000FCCF1092210308954091AD02262F30E075
:10186000240F311D21323105DCF420912103243075
:10187000C9F4FC0180E090E0861758F43091AD0285
:101880002191DC01A557BD4FA30FB11D2C930196EB
:10189000F3CF8091AD02680F6093AD0280E00895B0
:1018A00081E0089582E008950895E0916C028091AE
:1018B0006B02E81730F4F0E0E552FD4F808190E0D4
:1018C00008958FEF9FEF089590916C0280916B02C5
:1018D000981750F4E92FF0E0E552FD4F208130E0F9
:1018E0009F5F90936C0202C02FEF3FEFC9010895F4
:1018F00080916B0290E020916C02821B9109089507
:10190000CF92DF92EF92FF920F931F93CF93DF93CB
:101910007C01262F972F8A0180912203882391F042
:10192000C62FD72F6E01C40ED51ECC15DD0571F064
:101930006991D701ED91FC910190F081E02DC701F3
:101940000995F3CF642F822F0E942C0CC801DF91E0
:10195000CF911F910F91FF90EF90DF90CF9008955E
:10196000CF93DF931F92CDB7DEB769832091220317
:101970002223D1F020914503203240F021E030E0D5
:10198000FC013383228380E090E015C08091230323
:10199000E82FF0E0EC5DFC4F998190838F5F80939E
:1019A00023038093450305C061E0CE0101960E94A8
:1019B0002C0C81E090E00F90DF91CF9108950E9470
:1019C0007C200F931F93CF93DF93EC018881998143
:1019D000009729F02A813B812617370788F48B016D
:1019E0006F5F7F4F0E94B21F009761F099838883D9
:1019F0001B830A832C813D81232B11F4FC0110826F
:101A000081E001C080E0DF91CF911F910F91089597
:101A10006115710579F0FB0101900020E9F731971C
:101A2000AF01461B570BDC01ED91FC910280F38165
:101A3000E02D099480E090E008950C94080D1F9229
:101A40000F920FB60F9211242F933F934F935F93F2
:101A50006F937F938F939F93AF93BF93EF93FF9376
:101A600086E493E00E946A0BFF91EF91BF91AF91E2
:101A70009F918F917F916F915F914F913F912F91A6
:101A80000F900FBE0F901F9018951F920F920FB6D8
:101A90000F9211242F938F939F93EF93FF93E091D5
:101AA0005603F09157038081E0915C03F0915D0350
:101AB00082FD12C0908180915F038F5F8F732091B0
:101AC0006003821751F0E0915F03F0E0EA5BFC4FA6
:101AD000958F80935F0301C08081FF91EF919F916B
:101AE0008F912F910F900FBE0F901F90189590E03F
:101AF000FC01E951FE4F3491FC01ED52FE4F24915F
:101B0000FC01E154FE4FE491EE2309F43BC0332382
:101B100039F1333091F038F43130A9F0323001F539
:101B200084B58F7D12C0373091F03830A1F0343059
:101B3000B9F4809180008F7D03C0809180008F7701
:101B4000809380000DC084B58F7784BD09C08091DB
:101B5000B0008F7703C08091B0008F7D8093B0007C
:101B6000F0E0EE0FFF1FEB54FE4FA591B4918FB73D
:101B7000F894EC91611103C020952E2301C02E2B07
:101B80002C938FBF0895CF93DF9390E0FC01ED522B
:101B9000FE4F2491FC01E154FE4F8491882361F1B2
:101BA00090E0880F991FFC01E555FE4FC591D49137
:101BB000FC01EB54FE4FA591B491611109C09FB790
:101BC000F8948881209582238883EC912E230BC082
:101BD000623061F49FB7F8943881822F8095832317
:101BE0008883EC912E2B2C939FBF06C08FB7F8945F
:101BF000E8812E2B28838FBFDF91CF9108958F929C
:101C00009F92AF92BF92CF92DF92EF92FF926B01C1
:101C10007C010E94FE0B4B015C01C114D104E10464
:101C2000F104F1F00E94FE0BDC01CB018819990947
:101C3000AA09BB09883E9340A105B10570F321E0D4
:101C4000C21AD108E108F10888EE880E83E0981ED8
:101C5000A11CB11CC114D104E104F10419F7DDCFBA
:101C6000FF90EF90DF90CF90BF90AF909F908F90BC
:101C700008952FB7F8946091D3027091D4028091A7
:101C8000D5029091D6022FBF08951F920F920FB6E2
:101C90000F9211242F933F938F939F93AF93BF93F2
:101CA0008091D3029091D402A091D502B091D60236
:101CB0003091D2022DE2230F2D3720F40196A11D81
:101CC000B11D05C020EB230F0296A11DB11D20936D
:101CD000D2028093D3029093D402A093D502B09302
:101CE000D6028091D7029091D802A091D902B091EA
:101CF000DA020196A11DB11D8093D7029093D802FC
:101D0000A093D902B093DA02BF91AF919F918F91C6
:101D10003F912F910F900FBE0F901F9018951F921B
:101D20000F920FB60F9211242F933F934F935F930F
:101D30006F937F938F939F93AF93BF93EF93FF9393
:101D4000E0910501F09106010995FF91EF91BF9196
:101D5000AF919F918F917F916F915F914F913F9143
:101D60002F910F900FBE0F901F9018951F920F92FA
:101D70000FB60F9211242F933F934F935F936F935E
:101D80007F938F939F93AF93BF93EF93FF93E091D4
:101D90000301F09104010995FF91EF91BF91AF917B
:101DA0009F918F917F916F915F914F913F912F9173
:101DB0000F900FBE0F901F9018951F920F920FB6A5
:101DC0000F9211242F933F934F935F936F937F93C1
:101DD0008F939F93AF93BF93EF93FF938091B9003D
:101DE000887F803609F49CC068F5883209F45BC0AE
:101DF00090F4803109F454C038F4882309F4F6C013
:101E0000883009F44DC0F6C0883109F44CC08032E6
:101E100009F45DC0EFC0803409F468C048F4803331
:101E200009F455C0883309F0E5C080931F03D8C07A
:101E3000803509F44FC0883509F45DC0883409F055
:101E4000D9C0D6C0883909F4C7C0A8F4883709F4C6
:101E500067C038F4883609F463C0803709F460C07D
:101E6000C9C0883809F4B8C0803909F45FC0803827
:101E700009F0C0C05BC0803B09F486C038F4803AEA
:101E800009F466C0883A09F47FC0B4C0803C09F404
:101E9000A7C0883C09F4A4C0883B09F48AC0AAC042
:101EA0008091FC0210C090911E0380911D03981731
:101EB00070F5E0911E0381E08E0F80931E03F0E029
:101EC000E350FD4F80818093BB0085EC86C08093FA
:101ED0001F038EC0E0911E0381E08E0F80931E03CE
:101EE0008091BB00F0E0E350FD4F808390911E0392
:101EF00080911D036EC0E0911E0381E08E0F8093E0
:101F00001E038091BB00F0E0E350FD4F8083809181
:101F1000200381116DC081E08093FB0284EA61C0DF
:101F200083E0809321031092D102CFCF8091D10220
:101F3000803208F051C0E091D10281E08E0F809391
:101F4000D1028091BB00F0E0EF54FD4F8083BDCF04
:101F500085EC8093BC00109221038091D1028032E5
:101F600030F4E091D102F0E0EF54FD4F1082609127
:101F7000D10270E0E091AF02F091B00281EB92E00B
:101F800009951092D10236C084E08093210310920B
:101F9000AE021092AD02E091AB02F091AC02099555
:101FA0008091AD02811105C081E08093AD02109255
:101FB0008B02E091AE0281E08E0F8093AE02F0E0E2
:101FC000E557FD4F80818093BB009091AE028091D8
:101FD000AD02981708F479CF85E88093BC000AC059
:101FE00085EC8093BC001092210304C010921F0363
:101FF0000E94220CFF91EF91BF91AF919F918F9121
:102000007F916F915F914F913F912F910F900FBEF4
:102010000F901F9018951F920F920FB60F921124D8
:102020008F930FB6F894A895809160008861809393
:102030006000109260000FBE8F910F900FBE0F9046
:102040001F90189591E0909322039DE19093440393
:102050001092230310924503682F83EE93E00E94B1
:10206000B00C80E00E94F91081E00E94561110929D
:102070006C0280936B0283EE93E00E94640C0895DF
:10208000CF93C62F91E0909322039DE19093440358
:102090001092230310924503682F83EE93E00E9471
:1020A000B00C6C2F83EE93E00E94B00C81E0CF91D6
:1020B0000C94F9100F931F93CF93DF93CDB7DEB736
:1020C0002C970FB6F894DEBF0FBECDBF81E0809392
:1020D00022038DE180934403109223031092450361
:1020E00061E083EE93E00E94B00C80E00E94F91062
:1020F00086E00E94561110926C0280936B0210E0F1
:1021000090916B0280916C02981779F001E0010FB9
:1021100083EE93E00E94640CE1E0F0E0EC0FFD1F21
:10212000E10FF11D8083102FEBCF4B8150E0542F36
:1021300044278C81482B94E0559547959A95E1F773
:102140004F5F5F4F6D8170E0762F66278E81682B21
:1021500034E0759567953A95E1F76F5F7F4F298178
:1021600030E0322F22278A81282BF4E035952795FD
:10217000FA95E1F72F5F3F4F38872F835A874987BA
:102180007C876B8738855A857C8580E090E02C962B
:102190000FB6F894DEBF0FBECDBFDF91CF911F9178
:1021A0000F910895CF93DF9300D000D000D0CDB72A
:1021B000DEB70E945A1080E026960FB6F894DEBF74
:1021C0000FBECDBFDF91CF910C9422108AE20E9406
:1021D00022108160682F8AE20C944010E09146033F
:1021E000F09147030190F081E02D682F86E493E0A1
:1021F0000994382F2091450390914403213208F02F
:1022000049C0809121038111FCCF42E0409321031A
:10221000309320033FEF30931F0310921E0320934F
:102220001D03A4E2B3E04DEF52E0FA013E2F341B50
:10223000321718F43D913193F9CF1092FC0220919E
:10224000FC02990F922B9093FC029091FB0291302B
:1022500061F41092FB029091FC029093BB0090916C
:10226000BC0093FDF8CF95EC01C095EE9093BC00B7
:10227000909121039230E1F390911F039F3F79F0F9
:1022800080911F03803241F080911F03803331F031
:1022900084E005C081E003C082E001C083E01092C9
:1022A0002303109245031092220308959091210375
:1022B0009111FCCF91E090932103909320032FEF95
:1022C00020931F0310921E03280F20931D03909349
:1022D000FC029091FC029A639093FC029091FB02A5
:1022E000913061F41092FB029091FC029093BB003C
:1022F0009091BC0093FDF8CF95EC01C095EE9093C2
:10230000BC00909121039130E1F390911E03981746
:1023100010F480911E03ADEFB2E02BED32E0F90135
:102320009E2F921B981718F49D919193F9CF0895C1
:102330000F931F93CF93DF938C01C0E0D0E0F8019F
:10234000EC0FFD1F6491662371F0E0914603F0915C
:1023500047030190F081E02D86E493E00995892BF5
:1023600011F02196ECCFCE01DF91CF911F910F910B
:1023700008958F929F92AF92BF920F931F93CF9326
:10238000DF93CDB7DEB7A1970FB6F894DEBF0FBECF
:10239000CDBF19A2423008F44AE08E010F5D1F4FF5
:1023A000842E912CA12CB12CA50194010E94D71D43
:1023B000E62FB901CA0101501109EA3014F4E05DB9
:1023C00001C0E95CD801EC93232B242B252B61F76A
:1023D000B80186E493E00E94080DA1960FB6F89428
:1023E000DEBF0FBECDBFDF91CF911F910F91BF9088
:1023F000AF909F908F900895CF92DF92EF92FF92CF
:10240000CF93DF936B017C014115510581F4E0917D
:102410004603F09147030190F081E02D86E493E0BC
:10242000DF91CF91FF90EF90DF90CF9009944A30E9
:102430005105D1F497FF17C08DE20E94EE10EC0118
:1024400066277727CB016C197D098E099F094AE021
:102450000E94B9118C0F9D1FDF91CF91FF90EF90DB
:10246000DF90CF9008954AE0C701B601DF91CF9188
:10247000FF90EF90DF90CF900C94B91161E072E083
:1024800086E493E00C94080DCF93DF93AB01BC017D
:10249000990F880B990B0E94FC11EC010E943E12CF
:1024A0008C0F9D1FDF91CF910895CF93DF93BC01D7
:1024B00086E493E00E94080DEC010E943E128C0F0E
:1024C0009D1FDF91CF9108954F925F926F927F92FF
:1024D0008F929F92AF92BF92CF92DF92EF92FF9234
:1024E0006B017C01B42E9B01AC010E94461F882326
:1024F00019F064E072E027C026013701E89477F80C
:102500002FEF3FEF4FE75FE7C301B2010E94461F85
:1025100081110DC02FEF3FEF4FE75FE7C301B2011D
:102520000E94341C18161CF468E072E00CC02FEFF7
:102530003FEF4FE75FE4C701B6010E941D1F181669
:1025400094F46CE072E086E493E0FF90EF90DF900B
:10255000CF90BF90AF909F908F907F906F905F9043
:102560004F900C94080D2FEF3FEF4FE75FECC70142
:10257000B6010E94341C87FDE4CF20E030E0A901C1
:10258000C701B6010E94341C87FF09C08DE20E947A
:10259000EE104C01F7FAF094F7F8F09402C0812C99
:1025A000912CA12C60E070E080E09FE3AB1441F03F
:1025B00020E030E040E251E40E94751EA394F6CF83
:1025C0009B01AC01C701B6010E94091E2B013C0111
:1025D0000E94EE1E6B017C010E94391C9B01AC0124
:1025E000C301B2010E94081E2B013C014AE0C70151
:1025F000B6010E94B9117C01E80CF91CBB2029F03E
:102600008EE20E94EE10E80EF91EDB2CDD2021F197
:1026100020E030E040E251E4C301B2010E949A1C84
:102620002B013C010E94EE1E4B01A12CB12C4AE073
:10263000C501B4010E94B911E80EF91EC501B4012B
:102640000E94391C9B01AC01C301B2010E94081E0B
:102650002B013C01DA94DACFC701FF90EF90DF90B5
:10266000CF90BF90AF909F908F907F906F905F9032
:102670004F9008950F931F93CF93DF93EC0160E089
:1026800070E0CB01E99120ED2E0F2A30C0F4AAE0D2
:10269000B0E09B01AC010E948D1D0E2FEE0F110BBF
:1026A000220B330BDC01CB01800F911FA21FB31F44
:1026B000BC01CD016053710981099109E3CFDF911C
:1026C000CF911F910F9108950F931F93CF93C1E066
:1026D000809185048D3221F0C0E005E814E002C04D
:1026E00006E814E0C8010E943A139B01AC01A4E67D
:1026F000B0E00E948D1DF801DF01219130ED320F15
:102700003A30D0F32E3269F511962C91119730EDB5
:10271000320F3A3030F5022E000C330B20533109C2
:102720004AE0429F8001439F100D1124012E000CAE
:10273000220B330B600F711F821F931F12960C9197
:1027400020ED200F2A3068F4002E000C110B0053EE
:102750001109012E000C220B330B600F711F821F19
:10276000931FCC2339F090958095709561957F4F9C
:102770008F4F9F4FCF911F910F9108954F925F926E
:102780006F927F928F929F92AF92BF92CF92DF9281
:10279000EF92FF92CF93DF9385E894E00E943A1383
:1027A0002B013C0124E630E040E050E00E94D71DC0
:1027B0009B01AC0160EA76E881E090E00E94741F22
:1027C0006B017C01E5E8F4E0819190ED980F9A307F
:1027D000D8F38E3219F5EF0180E1882E87E2982E2A
:1027E000A12CB12CA99180ED8A0F8A30B8F40A2E61
:1027F000000CBB0BD097A50194010E94981DC60E3A
:10280000D71EE81EF91EC501B4012AE030E040E001
:1028100050E00E94D71D49015A01E4CFC701B6011B
:102820006D5F7F4F8F4F9F4F26E030E040E050E0DC
:102830000E94D71D69017A01C301B20124E630E08C
:1028400040E050E00E94D71D60E472E48FE090E029
:102850000E94741F6C0D7D1D8E1D9F1DDF91CF91F9
:10286000FF90EF90DF90CF90BF90AF909F908F90B0
:102870007F906F905F904F900895DC01FB019D91D8
:10288000992319F081919817D1F3892F990F990BFA
:10289000089580E194E00E94D00181E095E00E94DB
:1028A000D00180E295E00C94D001CF93DF93CDB7B7
:1028B000DEB7C656D1090FB6F894DEBF0FBECDBF46
:1028C000789484B5826084BD84B5816084BD85B50B
:1028D000826085BD85B5816085BD80916E00816017
:1028E00080936E00109281008091810082608093BD
:1028F00081008091810081608093810080918000BF
:102900008160809380008091B10084608093B100E9
:102910008091B00081608093B00080917A008460E3
:1029200080937A0080917A00826080937A0080910F
:102930007A008E7F80937A0080917A0080688093FD
:102940007A001092C100E0915603F091570382E0A3
:102950008083E0915203F09153031082E09154037D
:10296000F09155038BE9808310925E03E0915A0346
:10297000F0915B0386E08083E0915803F091590366
:10298000808180618083E0915803F09159038081B8
:1029900088608083E0915803F091590380818068BA
:1029A0008083E0915803F091590380818F7D80836B
:1029B0008CEB91E00E94551264E670E080E090E0BC
:1029C0000E94FF0D40E855E260E070E081E095E094
:1029D0000E942C0264E670E080E090E00E94FF0D0F
:1029E0001A8219821C821B821E821D8260E070E0A6
:1029F0008E010F5F1F4FC8010E94E10C29813A81AF
:102A000081110DC02115310519F0C9010E94761BF5
:102A10001A8219821E821D821C821B8207C01E829E
:102A20001D8263E072E0C9010E948A2067EC71E0B8
:102A300081E095E00E941D0D81E095E00E949701E4
:102A4000892BE9F561E086E00E94770D68EE73E07E
:102A500080E090E00E94FF0D60E086E00E94770D2C
:102A600068EE73E080E090E00E94FF0DE5CF81E02A
:102A700095E00E94AF01A6968FAFA697A7961FAECE
:102A8000A797ED80FE802FEFE21AF20AB701C80186
:102A90000E94E10C882369F029813A818D819E8111
:102AA000BE016B597F4F820F931F0E948A20FE82C6
:102AB000ED826AE070E080E090E00E94FF0D81E02E
:102AC00095E00E949701892B91F68DEC91E00E9490
:102AD00055124D815E8169817A8186E493E00E947E
:102AE000F80A0E943E1289819A810E94761B64E650
:102AF00070E080E090E00E94FF0D40EC52E160E069
:102B000070E080E194E00E942C0264E670E080E0D6
:102B100090E00E94FF0D61E080EC0E94C30D62E036
:102B20008CE10E94C30D8AE385B987E084B985E40E
:102B300087B918B882EC8AB988E18BB980E290E055
:102B40000E94581DF82E81E290E00E94581D282F07
:102B500030E0322F2227C9018F0D911D9093700212
:102B600080936F0283EF90E00E94FE0360916F02FA
:102B70007091700280E090E04AE00E94B91184ED0B
:102B800093E09093700280936F0261E08AE00E946C
:102B9000770D1092000164E670E080E090E00E9402
:102BA000FF0D30E08091000140E4849FC0011124BA
:102BB000816080937C0080917A00806480937A00A9
:102BC00080917A0086FDFCCF809178002091790079
:102BD00090E0922B9595879595958795482F29811B
:102BE000821770F0332361F0F80121E0231749F0D8
:102BF0005191451718F05081541718F42F5FF6CFF4
:102C000020E0432F241760F4642F70E0FE01E60FEC
:102C1000F71F5081F801E60FF71F50834150F2CFA4
:102C2000F801E20FF11D80833F5F343609F0BACF1F
:102C3000FE01BF96CE01C796E12CF12C2191E20E48
:102C4000F11CE817F907D1F7F694E794F0927B02AC
:102C5000E0927A0284E0E81AF10880916F02909184
:102C600070028E159F0570F46E2D80E290E00E9438
:102C7000601D6F2D81E290E00E94601DF092700255
:102C8000E0926F0220917A0230917B02A8E6B0E1D7
:102C90000E94F91D20916F023091700240E050E0D7
:102CA0000E946E1D69017A01C90123EFC2162DE051
:102CB000D20610F082EF9DE04C01A12CB12CD7017F
:102CC000C601AA27BB279C01AD01281939094A0969
:102CD0005B09A4E6B0E00E948D1D960148E6C4168B
:102CE00040E1D40610F428E630E16901E12CF12C32
:102CF000A7019601281939094A095B090E946E1D2E
:102D000020936E0261E08AE00E94770D83E591E0F6
:102D10000E94FE0360916E0270E080E090E04AE065
:102D20000E94B91180E591E00E94FE0360917A0251
:102D300070917B0280E090E04AE00E94B9110E940D
:102D40003E1264E670E080E090E00E94FF0D109279
:102D500074021092730284E090E0909302018093D9
:102D60000101EFEFF0E0A491B0E020E432E44FE0A5
:102D700050E00E948D1D6B017C014BE0F694E794BE
:102D8000D794C7944A95D1F7D0927202C09271023B
:102D90008BE391E00E949811C701B601882799271B
:102DA0004AE00E94B91160EE71E086E493E00E946F
:102DB0001D0D10926C0210926B0210922303109260
:102DC00045031092210381E0809320031092FB02BF
:102DD00061E082E10E94770D61E083E10E94770D5E
:102DE0008091B9008E7F8093B9008091B9008D7F6A
:102DF0008093B90084E38093B80085E48093BC009D
:102E000060E48BE20E94401062E070E080E090E0BD
:102E10000E94FF0D8DE00E9422108A3409F011C338
:102E20000E94D2100E94240261E08AE20E944010B7
:102E300060E08EE00E9440100E94E61060ED77E0B6
:102E400080E090E00E94FF0D0E94D21084E6282EC0
:102E5000312C412C512C3201812C912C5401C12C4C
:102E6000D12C76010E945A1029833A834B835C83CC
:102E70006D837E8389819A81092E000CAA0BBB0B7E
:102E8000C80ED91EEA1EFB1E8B819C81092E000CE8
:102E9000AA0BBB0B880E991EAA1EBB1E8D819E819C
:102EA000092E000CAA0BBB0B480E591E6A1E7B1E76
:102EB0006FE070E080E090E00E94FF0D81E0281A52
:102EC000310881F6C701B60124E630E040E050E069
:102ED0000E946E1D69017A01C501B40124E630E04B
:102EE00040E050E00E946E1D49015A01C301B20149
:102EF00024E630E040E050E00E946E1D29013A01D6
:102F000012161306140615062CF484E0581A6108EC
:102F1000710804C084E0580E611C711C82E091E0CD
:102F20000E9498114AE050E0C701B6010E94FC11CE
:102F300064EE71E086E493E00E941D0D4AE050E0EB
:102F4000C501B4010E94FC1168EE71E086E493E0D3
:102F50000E941D0D4AE050E0C301B2010E94FC1125
:102F60006CEE71E086E493E00E941D0D0E94240245
:102F700061E070E080E090E00E94FF0D6627772717
:102F8000CB016C197D098E099F0932E0C32ED12C2B
:102F9000E12CF12CA70196010E946E1D622F8FE299
:102FA0000E94401061E070E080E090E00E94FF0D20
:102FB00066277727CB01681979098A099B09A70138
:102FC00096010E946E1D622F80E30E94401061E016
:102FD00070E080E090E00E94FF0D66277727CB012C
:102FE0006419750986099709A70196010E946E1D4B
:102FF000622F81E30E94401061E070E080E090E089
:103000000E94FF0D0E94E61081E30E942210F82E1C
:1030100080E30E942210E82E8FE20E942210D82E18
:1030200086E191E00E9498116D2D660F770B072EB7
:10303000000C880B990B4AE050E00E94FC1182E1E1
:1030400091E00E9498116E2D660F770B072E000CF1
:10305000880B990B4AE050E00E94FC118EE091E051
:103060000E9498116F2D660F770B072E000C880BAE
:10307000990B4AE050E00E94FC118AE091E00E9426
:1030800098110E94240263E06F7E6F7D8FE00E94A2
:10309000401060917302637060618EE00E94401086
:1030A0008AE20E942210609101016770660F660F2C
:1030B000660F606C8AE20E94401066E08BE20E941C
:1030C00040106FE089E20E94401068E68CE20E94A6
:1030D000401060E06160646060616D7F677F6F7D5C
:1030E0006F77606481E20E94401060E283E20E9498
:1030F000401060E284E20E94401060E285E20E949B
:10310000401060E386E20E94401060EA87E20E947D
:1031100040106FEF88E20E94401068ED85E10E9448
:10312000401068E0606887E10E94401064E088E138
:103130000E9440106EE18DE10E94401063E08FE13B
:103140000E94401068E080E20E9440106DEB8DE22A
:103150000E9440100E94E61060ED77E080E090E071
:103160000E94FF0D10928A020E94D21085E491E025
:103170000E94FE038091490590914A05009711F441
:103180008DE495E06AE070E09801281B390BC901D5
:103190000E9444128CEE91E0909306018093050109
:1031A00080916900837F886080936900E99A10921A
:1031B0006D02109275020E940D04892B29F480EF94
:1031C00091E00E945512F7CF0E940D04E091F303A5
:1031D000A091F503B0E020E831E541E050E00E9425
:1031E0008D1D6B017C012091F40330E0A0E1BEE075
:1031F0000E94F91DC60ED71EE81EF91E8091F2032B
:10320000C80ED11CE11CF11C2E2F30E0ACE3B0E065
:103210000E94F91DC60ED71EE81EF91EC09282023A
:10322000D0928302E0928402F09285020E94390ECD
:10323000609376027093770280937802909379027C
:1032400098EE892E93E0992EA12CB12C2CE3422EDE
:10325000512C612C712C8CE00E942210182F882395
:1032600029F080918A02181310938A0210FF6BC014
:1032700080E00E94221083FF62C00E945A102093B7
:103280007C0230937D0240937E0250937F026093D4
:1032900080027093810220907C0230907D02C101F7
:1032A00037FE04C08827992782199309C0907E02AF
:1032B000D0907F02E0908002F0908102029794F417
:1032C000C601D7FE04C0882799278C199D0902974B
:1032D0004CF4C701F7FE04C0882799278E199F096F
:1032E00002978CF16FEF71E086E493E00E941D0D70
:1032F000B101330C880B990B4AE050E00E94FC119D
:1033000080E691E00E949811B601DD0C880B990BC4
:103310004AE050E00E94FC118EE591E00E94981175
:10332000B701FF0C880B990B4AE050E00E94FC119A
:1033300062E072E086E493E00E941D0D04C08EE816
:1033400091E00E94981117FF4FC00E94390EA5010D
:1033500094010E94D71DCA01B9014AE00E94B91127
:103360000E943E120E94390EA50194010E94D71DB1
:103370008091820290918302A0918402B091850293
:1033800069017A01C80ED91EEA1EFB1EC701B601EB
:1033900020E831E541E050E00E94D71D2093F5037D
:1033A00020E13EE040E050E00E94D71D2093F4036E
:1033B000C701B601A30192010E94D71D062FCA01C1
:1033C000B901A30192010E94D71D6093F3030093FA
:1033D000F2030E94BD030E943E1280E891E00E9429
:1033E00098118BE00E94221015FF28C060E170E068
:1033F00081E090E00E9444121092860210928702AF
:1034000010928802109289020E94390E643671056A
:103410008105910598F08EE10E94221086FD04C07E
:1034200082E691E00E9498110E94390E6093860214
:103430007093870280938802909389020E94F40B14
:103440000ACF8EE191E00E94981160E27EE480E074
:1034500090E0DECCCF92DF92EF92FF92E6E4F3E0D1
:103460001382128288EE93E0A0E0B0E0848395831B
:10347000A683B78323E231E03183208325EC30E05B
:103480003587248724EC30E03787268720EC30E02E
:10349000318B208B21EC30E0338B228B22EC30E01F
:1034A000358B248B26EC30E0378B268B118E128ED9
:1034B000138E148EE3EEF3E01382128284839583DD
:1034C000A683B78385E391E09183808320E048E081
:1034D00065E080E295E00E94DD02CC24CA94DC2CF9
:1034E0007601C0923F05D0924005E0924105F092EE
:1034F000420520E048E065E081E095E00E94DD02C1
:10350000EFE2F4E0C082D182E282F382108611867B
:10351000128613868FEF99ECAAE9BBE3808B918B1F
:10352000A28BB38B808F918FA28FB38F80A391A337
:10353000A2A3B3A380A791A7A2A7B3A780AB91AB87
:10354000A2ABB3ABC0AED1AEE2AEF3AE8FEF90E0C4
:103550009093700480936F04C0927304D0927404AB
:10356000E0927504F0927604C0927B04D0927C04C1
:10357000E0927D04F0927E04109283041092840401
:1035800086E0809394041092950410929604109211
:1035900097041092850420E040E061E080E194E02F
:1035A0000E94DD02EFEEF3E011821082128213829C
:1035B0001482158216821782FF90EF90DF90CF90D1
:1035C0000895CF93DF938230910510F482E090E06C
:1035D000E0914B05F0914C0520E030E0C0E0D0E0F8
:1035E000309711F14081518148175907C0F04817B1
:1035F000590761F482819381209719F09B838A8314
:103600002BC090934C0580934B0526C021153105A6
:1036100019F04217530718F49A01BE01DF01EF01B8
:103620000280F381E02DDCCF2115310509F1281B43
:10363000390B2430310590F412968D919C9113979B
:103640006115710521F0FB019383828304C090937F
:103650004C0580934B05FD01329644C0FD01E20FFD
:10366000F31F81939193225031092D933C933AC0DB
:103670002091490530914A05232B41F420910901FD
:1036800030910A0130934A052093490520910701A2
:10369000309108012115310541F42DB73EB7409115
:1036A0000B0150910C01241B350BE0914905F09161
:1036B0004A05E217F307A0F42E1B3F0B2817390722
:1036C00078F0AC014E5F5F4F2417350748F04E0F7E
:1036D0005F1F50934A05409349058193919302C01F
:1036E000E0E0F0E0CF01DF91CF9108950F931F93B9
:1036F000CF93DF93009709F48CC0FC0132971382BB
:10370000128200914B0510914C050115110581F4B1
:1037100020813181820F931F2091490530914A0504
:103720002817390779F5F0934A05E093490571C0E8
:10373000D80140E050E0AE17BF0750F412962D912B
:103740003C911397AD012115310509F1D901F3CF52
:103750009D01DA013383228360817181860F971F77
:103760008217930769F4EC0128813981260F371FEE
:103770002E5F3F4F318320838A819B819383828395
:10378000452B29F4F0934C05E0934B0542C013966A
:10379000FC93EE931297ED01499159919E01240FEC
:1037A000351FE217F30771F480819181840F951F13
:1037B000029611969C938E938281938113969C938B
:1037C0008E931297E0E0F0E0D80112968D919C91D3
:1037D0001397009719F0F8018C01F6CF8D919C9109
:1037E00098012E5F3F4F820F931F20914905309122
:1037F0004A052817390769F4309729F410924C05C7
:1038000010924B0502C01382128210934A05009356
:103810004905DF91CF911F910F910895FC018827F1
:103820009927E89421912032E9F3293010F02E30C5
:10383000C8F32B3241F02D3239F4689404C00E9451
:103840002C1C820F911D219120532A30C0F31EF4AD
:10385000909581959F4F08957AE0979F902D879F2F
:10386000802D910D112408950E94761C08F481E0AA
:103870000895E89409C097FB3EF490958095709563
:1038800061957F4F8F4F9F4F9923A9F0F92F96E9AC
:10389000BB279395F695879577956795B795F11121
:1038A000F8CFFAF4BB0F11F460FF1BC06F5F7F4FBE
:1038B0008F4F9F4F16C0882311F096E911C07723D0
:1038C00021F09EE8872F762F05C0662371F096E8D9
:1038D000862F70E060E02AF09A95660F771F881FA8
:1038E000DAF7880F9695879597F90895990F00084C
:1038F000550FAA0BE0E8FEEF16161706E807F907C2
:10390000C0F012161306E407F50798F0621B730B5C
:10391000840B950B39F40A2661F0232B242B252BDD
:1039200021F408950A2609F4A140A6958FEF811D80
:10393000811D08950E94AD1C0C941E1D0E94101D37
:1039400038F00E94171D20F0952311F00C94071DEC
:103950000C940D1D11240C94521D0E942F1D70F308
:10396000959FC1F3950F50E0551F629FF001729F24
:10397000BB27F00DB11D639FAA27F00DB11DAA1F33
:10398000649F6627B00DA11D661F829F2227B00D80
:10399000A11D621F739FB00DA11D621F839FA00D0B
:1039A000611D221F749F3327A00D611D231F849F5B
:1039B000600D211D822F762F6A2F11249F575040B2
:1039C0009AF0F1F088234AF0EE0FFF1FBB1F661F2D
:1039D000771F881F91505040A9F79E3F510580F0F6
:1039E0000C94071D0C94521D5F3FE4F3983ED4F3F2
:1039F000869577956795B795F795E7959F5FC1F79A
:103A0000FE2B880F911D9695879597F9089597F944
:103A10009F6780E870E060E008959FEF80EC089574
:103A200000240A941616170618060906089500249D
:103A30000A9412161306140605060895092E039417
:103A4000000C11F4882352F0BB0F40F4BF2B11F48B
:103A500060FF04C06F5F7F4F8F4F9F4F089557FDEA
:103A60009058440F551F59F05F3F71F04795880FEC
:103A700097FB991F61F09F3F79F087950895121683
:103A800013061406551FF2CF4695F1DF08C016162F
:103A900017061806991FF1CF8695710561050894E0
:103AA0000895E894BB2766277727CB0197F90895F7
:103AB000F999FECF92BD81BDF89A992780B50895F6
:103AC000262FF999FECF1FBA92BD81BD20BD0FB63A
:103AD000F894FA9AF99A0FBE01960895052E97FB6D
:103AE0001EF400940E94851D57FD07D00E94D71D2B
:103AF00007FC03D04EF40C94851D509540953095ED
:103B000021953F4F4F4F5F4F089590958095709549
:103B100061957F4F8F4F9F4F08950E94F91DA59F7C
:103B2000900DB49F900DA49F800D911D11240895B8
:103B3000B7FF0C948D1D0E948D1D821B930B089561
:103B40002F923F924F925F926F927F928F929F92AD
:103B5000AF92BF92CF92DF92EF92FF920F931F939B
:103B6000CF93DF93CDB7DEB7CA1BDB0B0FB6F8944C
:103B7000DEBF0FBECDBF09942A88398848885F848C
:103B80006E847D848C849B84AA84B984C884DF80FD
:103B9000EE80FD800C811B81AA81B981CE0FD11DE1
:103BA0000FB6F894DEBF0FBECDBFED010895A1E2C0
:103BB0001A2EAA1BBB1BFD010DC0AA1FBB1FEE1FA7
:103BC000FF1FA217B307E407F50720F0A21BB30BF2
:103BD000E40BF50B661F771F881F991F1A9469F76E
:103BE00060957095809590959B01AC01BD01CF01CA
:103BF0000895A29FB001B39FC001A39F700D811DC6
:103C00001124911DB29F700D811D1124911D0895E5
:103C10005058BB27AA270E94201E0C941E1D0E94EC
:103C2000101D38F00E94171D20F039F49F3F19F441
:103C300026F40C940D1D0EF4E095E7FB0C94071D83
:103C4000E92F0E942F1D58F3BA17620773078407E4
:103C5000950720F079F4A6F50C94511D0EF4E0952B
:103C60000B2EBA2FA02D0B01B90190010C01CA0136
:103C7000A0011124FF27591B99F0593F50F4503EE1
:103C800068F11A16F040A22F232F342F4427585FD3
:103C9000F3CF469537952795A795F0405395C9F7EB
:103CA0007EF41F16BA0B620B730B840BBAF09150A3
:103CB000A1F0FF0FBB1F661F771F881FC2F70EC042
:103CC000BA0F621F731F841F48F487957795679515
:103CD000B795F7959E3F08F0B0CF9395880F08F001
:103CE0009927EE0F9795879508950E94891E0C9449
:103CF0001E1D0E94171D58F00E94101D40F029F44F
:103D00005F3F29F00C94071D51110C94521D0C9427
:103D10000D1D0E942F1D68F39923B1F3552391F3D4
:103D2000951B550BBB27AA2762177307840738F02A
:103D30009F5F5F4F220F331F441FAA1FA9F335D087
:103D40000E2E3AF0E0E832D091505040E695001C3B
:103D5000CAF72BD0FE2F29D0660F771F881FBB1FF5
:103D6000261737074807AB07B0E809F0BB0B802DD3
:103D7000BF01FF2793585F4F3AF09E3F510578F0FF
:103D80000C94071D0C94521D5F3FE4F3983ED4F34E
:103D9000869577956795B795F7959F5FC9F7880FD3
:103DA000911D9695879597F90895E1E0660F771F25
:103DB000881FBB1F621773078407BA0720F0621BB6
:103DC000730B840BBA0BEE1F88F7E09508950E94E1
:103DD000EE1E6894B1110C94521D08950E94371D77
:103DE00088F09F5798F0B92F9927B751B0F0E1F0BC
:103DF000660F771F881F991F1AF0BA95C9F714C06C
:103E0000B13091F00E94511DB1E008950C94511D04
:103E1000672F782F8827B85F39F0B93FCCF38695A4
:103E200077956795B395D9F73EF490958095709501
:103E300061957F4F8F4F9F4F08950E94761C08F425
:103E40008FEF08950E94371DE8F09E37E8F096390D
:103E5000B8F49E3848F4672F782F8827985FF9CFF9
:103E600086957795679593959539D0F3B62FB17070
:103E70006B0F711D811D20F487957795679593953C
:103E80000C944B1F0C94661F0C94521D0E94761CC0
:103E9000880B990B0895882371F4772321F09850AB
:103EA000872B762F07C0662311F499270DC09051F8
:103EB000862B70E060E02AF09A95660F771F881FC6
:103EC000DAF7880F9695879597F908959F3F31F017
:103ED000915020F4879577956795B795880F911D38
:103EE0009695879597F90895DB018F939F930E948C
:103EF0008D1DBF91AF91A29F800D911DA39F900D2D
:103F0000B29F900D1124089597FB072E16F400948C
:103F100007D077FD09D00E94981F07FC05D03EF41A
:103F2000909581959F4F0895709561957F4F089565
:103F3000AA1BBB1B51E107C0AA1FBB1FA617B707CF
:103F400010F0A61BB70B881F991F5A95A9F78095EB
:103F50009095BC01CD010895EE0FFF1F0590F491DF
:103F6000E02D0994A0E0B0E0E8EBFFE10C94A41D83
:103F7000EC01009721F4CB010E94E11AB8C0FC01CA
:103F8000E60FF71F9C0122503109E217F30708F4EE
:103F9000ACC0D9010D911C91119706171707B0F00D
:103FA0000530110508F49FC0C801049786179707CC
:103FB00008F499C002501109061B170B01931193C5
:103FC0006D937C93CF010E94761B8DC05B01A01A7C
:103FD000B10A4C01800E911EA0914B05B0914C0589
:103FE00040E050E0E12CF12C109709F44AC0A815EC
:103FF000B905D1F56D907C901197630182E0C80EF0
:10400000D11CCA14DB0480F1A3014A195B096A01BF
:1040100082E0C80ED11C1296BC9012971396AC91F8
:10402000B5E0CB16D10440F0B282A3835183408324
:10403000D9016D937C930AC00E5F1F4FC301800F9F
:10404000911FF90191838083EB2DFA2FE114F10484
:1040500031F0D7011396FC93EE93129744C0F0937E
:104060004C05E0934B053FC08D919C9111974817EB
:10407000590708F4AC017D0112960D90BC91A02D5A
:10408000B3CF8091490590914A0588159905E1F4CF
:1040900046175707C8F480910701909108010097CF
:1040A00041F48DB79EB740910B0150910C01841BD8
:1040B000950BE817F907C8F4F0934A05E093490512
:1040C000F901718360830FC0CB010E94E11A7C016A
:1040D000009759F0A801BE010E948120CE010E94E4
:1040E000761BC70104C0CE0102C080E090E0CDB7CE
:1040F000DEB7EEE00C94C01D81E090E0F8940C94E3
:104100004123FB01DC0102C001900D92415050405F
:10411000D8F70895FB01DC0101900D920020E1F732
:104120000895FB01DC014150504048F001900D9290
:104130000020C9F701C01D9241505040E0F708959A
:10414000AEE0B0E0E6EAF0E20C94AE1D0D891E8907
:1041500086E08C831A8309838FEF9FE79E838D838C
:10416000AE01475E5F4F6F89788DCE0101960E9448
:10417000C3202F813885F801E20FF31F10822E969D
:10418000E4E00C94CA1DACE0B0E0E9ECF0E20C9481
:10419000A01D7C016B018A01FC01178216828381BC
:1041A00081FFBDC1CE0101964C01F7019381F6015B
:1041B00093FD859193FF81916F01882309F4ABC131
:1041C000853239F493FD859193FF81916F0185329A
:1041D00029F4B70190E00E94AB22E7CF512C312C9B
:1041E00020E02032A0F48B3269F030F4803259F0B4
:1041F000833269F420612CC08D3239F0803339F478
:10420000216026C02260246023C0286021C027FDD1
:1042100027C030ED380F3A3078F426FF06C0FAE0B8
:104220005F9E300D1124532E13C08AE0389E300D4E
:104230001124332E20620CC08E3221F426FD6BC176
:10424000206406C08C3611F4206802C0883641F420
:10425000F60193FD859193FF81916F018111C1CF8B
:10426000982F9F7D9554933028F40C5F1F4FFFE3E8
:10427000F9830DC0833631F0833771F0833509F04F
:104280005BC022C0F801808189830E5F1F4F4424E8
:104290004394512C540115C03801F2E06F0E711C8B
:1042A000F801A080B18026FF03C0652D70E002C038
:1042B0006FEF7FEFC5012C870E94A0222C018301A4
:1042C0002C852F77222E17C03801F2E06F0E711C5B
:1042D000F801A080B18026FF03C0652D70E002C008
:1042E0006FEF7FEFC5012C870E9495222C012C8552
:1042F0002068222E830123FC1BC0832D90E04816EA
:104300005906B0F4B70180E290E00E94AB223A94E3
:10431000F4CFF50127FC859127FE81915F01B7015C
:1043200090E00E94AB2231103A94F1E04F1A51080C
:104330004114510471F7E5C0843611F0893639F51E
:10434000F80127FF07C060817181828193810C5F32
:104350001F4F08C060817181072E000C880B990BDC
:104360000E5F1F4F2F76722E97FF09C09095809594
:10437000709561957F4F8F4F9F4F2068722E2AE076
:1043800030E0A4010E94E322A82EA81844C085377B
:1043900029F42F7EB22E2AE030E025C0F22FF97FDB
:1043A000BF2E8F36C1F018F4883579F0B4C080374D
:1043B00019F0883721F0AFC02F2F2061B22EB4FE44
:1043C0000DC08B2D8460B82E09C024FF0AC09F2F1A
:1043D0009660B92E06C028E030E005C020E130E04C
:1043E00002C020E132E0F801B7FE07C060817181B0
:1043F000828193810C5F1F4F06C06081718180E0D4
:1044000090E00E5F1F4FA4010E94E322A82EA8187F
:10441000FB2DFF777F2E76FE0BC0372D3E7FA51438
:1044200050F474FE0AC072FC08C0372D3E7E05C0F1
:10443000BA2C372D03C0BA2C01C0B52C34FF0DC0E7
:10444000FE01EA0DF11D8081803311F4397E09C02F
:1044500032FF06C0B394B39404C0832F867809F06A
:10446000B39433FD13C030FF06C05A2CB31418F4B4
:10447000530C5B18B32CB31468F4B70180E290E0DE
:104480003C870E94AB22B3943C85F5CFB31410F463
:104490003B1801C0312C34FF12C0B70180E390E01B
:1044A0003C870E94AB223C8532FF17C031FD03C020
:1044B00088E790E002C088E590E0B7010CC0832F48
:1044C000867859F031FF02C08BE201C080E237FDEF
:1044D0008DE2B70190E00E94AB22A51438F4B70139
:1044E00080E390E00E94AB225A94F7CFAA94F401A3
:1044F000EA0DF11D8081B70190E00E94AB22A1106E
:10450000F5CF332009F451CEB70180E290E00E944C
:10451000AB223A94F6CFF7018681978102C08FEFE4
:104520009FEF2C96E2E10C94BC1DFC0105906150BC
:1045300070400110D8F7809590958E0F9F1F0895B9
:10454000FC016150704001900110D8F78095909562
:104550008E0F9F1F08950F931F93CF93DF93FB013F
:10456000238121FD03C08FEF9FEF28C022FF16C0DB
:1045700046815781248135814217530744F4A08135
:10458000B1819D012F5F3F4F318320838C93268122
:1045900037812F5F3F4F3783268310C0EB01092FF0
:1045A000182F0084F185E02D0995892BE1F68E8185
:1045B0009F8101969F838E83812F902FDF91CF91D2
:1045C0001F910F910895FA01AA27283051F1203147
:1045D00081F1E8946F936E7F6E5F7F4F8F4F9F4F97
:1045E000AF4FB1E03ED0B4E03CD0670F781F891FD9
:1045F0009A1FA11D680F791F8A1F911DA11D6A0FA7
:10460000711D811D911DA11D20D009F468943F9159
:104610002AE0269F11243019305D3193DEF6CF0158
:104620000895462F4770405D4193B3E00FD0C9F71E
:10463000F6CF462F4F70405D4A3318F0495D31FD8B
:104640004052419302D0A9F7EACFB4E0A6959795DE
:10465000879577956795BA95C9F7009761057105B4
:1046600008959B01AC010A2E0694579547953795FE
:104670002795BA95C9F7620F731F841F951FA01D58
:10468000089511E0CFEFD0E004C0FE010E94AC1FFE
:0C4690002196C030D107C9F7F894FFCF85
:10469C00010400210C210C00004D058000000000DD
:1046AC00004301F80AE90142019701AF012A010018
:1046BC000000008B0BF80A230BD20B540B320B4669
:1046CC000B00000000B00C800CE901540C780C6459
:1046DC000C550C00000000DF0CF80AE901E801DFC2
:1046EC000CDF0CDF0C00000000DF0CF80AE901E81D
:1046FC00013000253032642F253032642F253032C2
:10470C006420253032643A253032643A25303264E4
:10471C0020004750524D4300474E524D4300474EE8
:10472C00474E5300474E47534100475047534100B3
:10473C00474C4753560047505320726561647900CB
:10474C0047504747410047504753560044656275F0
:10475C0067206D6F646500415449370D00536967DC
:10476C00666F78204465766963652049443A200079
:10477C0075670A0009793D00097A3D006D670A00EA
:10478C004E6F742063616C69627261746564002C95
:10479C00000D0A006E616E00696E66006F76660031

:1070000060C0000093C0000077C0000075C00000A1
:1070100073C0000071C000006FC000006DC00000B0
:107020006BC0000069C0000067C0000065C00000C0
:1070300063C0000061C000005FC000005DC00000D0
:107040005BC0000059C0000057C0000055C00000E0
:1070500053C0000051C000004FC000004DC00000F0
:107060004BC0000049C00000090219000101008066
:107070007D090400000100000000070581030800ED
:107080000A12011001FF000008C016DC0502010110
:107090000200010E035500530042006100730070AE
:1070A000001C037700770077002E006600690073EC
:1070B00000630068006C002E006400650004030992
:1070C000040011241FBECFEFD8E0DEBFCDBF11E01A
:1070D000A0E0B1E0EAE9F8E702C005900D92A63021
:1070E000B107D9F721E0A6E0B1E001C01D92AA34B2
:1070F000B207E1F769D1CFC383CFA82FB92F80E0C2
:1071000090E041E050EA609530E009C02D9182277F
:107110009795879510F084279527305EC8F36F5FA9
:10712000A8F30895EADF8D939D930895CF93CFB789
:10713000CF93C3954C9BE9F74C9B09C04C9B07C070
:107140004C9B05C04C9B03C04C9B01C0A3C0DF936C
:10715000C0912D01DD27CC5CDE4F4C9B02C0DF913E
:10716000EBCF2F930F931F9309B12FEF04FB20F95F
:107170004F933F9319B14FEF012704FB21F93BE0F7
:1071800031C04E7F012F19B1216028C0102F4D7FD3
:107190002260000009B129C04B7F2460012F00004C
:1071A00019B12BC019B1477F28602AC04F7E09B1A1
:1071B00020612CC04F7D19B120622FC04F7B09B1D7
:1071C000206432C0422709B149934FEF00001027D5
:1071D00014FB20F919B11471C9F1297F91F201272B
:1071E00004FB21F909B1237F89F2315058F11027AE
:1071F00014FB22F919B1277E79F2012704FB23F948
:107200002F7C81F209B1102714FB24F92F7971F238
:1072100000C019B1012704FB25F92F7359F200C0F2
:1072200009B1102714FB26F9223040F200C019B131
:10723000012704FB27F9243028F64F77206819B17D
:107240000000F9CF11E01CBB002719C03B5031955D
:10725000C31BD04011E01CBB0881033CF9F00B3488
:10726000E9F020912B011981110F1213EDCF4A8102
:10727000441F093641F10D3211F0013E29F7009308
:1072800032013F914F911F910F912F91DF91CCB31C
:10729000C0FD4FCFCF91CFBFCF9118952091320134
:1072A000222379F310913001112369F534306AF10A
:1072B0003093300120932C0110912D013BE0311BC4
:1072C00030932D0122C0009130010130E4F40AE531
:1072D0004F7049F43091010134FD19C00093010150
:1072E000C4E1D1E018C030911F0134FD10C00093FB
:1072F0001F01C0E2D1E00FC02795A8F45150A9F4B6
:10730000220F0000F9CF4AE503C042ED01C0432F30
:10731000C4E1D0E032E01AB114615C9A1AB90BB141
:1073200020E414E15F93012756E00BB9279520F480
:10733000515021F4220FF9CF012756E000003B5AAB
:107340000BB9D0F2279528F4515029F4220F0000F0
:10735000F9CF012756E027950BB920F4515021F4BD
:10736000220FF9CF012756E0299133230BB921F6DB
:107370000B7E10913101110FC651D0400BB911F0A5
:1073800010932B0111E01CBB00611AB11B7E402F32
:107390004B7E5F9100C000C00BB91AB94BB971CFD9
:1073A000109212011092850010928400E1E8F0E042
:1073B000808185608083089510921201E1E8F0E0F9
:1073C0008081887F8083089588E10FB6F894809348
:1073D0006000109260000FBE219A299842983A9A54
:1073E0005B9A14BE81E085BF82E085BF8091690011
:1073F000826080936900E89A8BE4809320018AE59B
:1074000080931F01549A80E0815041F0A895E7EBEA
:10741000FBE03197F1F700C00000F6CF549880915F
:10742000810088608093810086EC9DE290938900C2
:10743000809388007894F12CE12C10913001135046
:1074400017FD6BC180912D01CCE0D0E0C81BD109A4
:10745000CC5CDE4F80912C018D3209F0D2C0183007
:1074600009F059C183EC809314018AE580930101EE
:10747000109213018881807609F446C09DDF86E072
:1074800091E090932F0180932E0129812330C9F43C
:107490009B818C812A81203339F48370E82FF0E0BE
:1074A000EE5FFE4F808109C0203A11F4DED105C0A5
:1074B000203C11F46D81E1D180E08093090114E05A
:1074C00021C02530F1F08CEF820F863098F48A814C
:1074D0009B819093100180930F01293081F08E8160
:1074E00080930E018D81827080930D0120930C0199
:1074F0001FEF08C0223019F481E08093110110E0E1
:1075000001C011E04DDF6AC09A8110921D0189818E
:10751000811106C010921E018DE191E012E05AC067
:10752000853019F49093310152C08630D1F58B81AA
:10753000813041F481E890E790932F0180932E01F0
:1075400012E12BC0823041F488E690E790932F013E
:1075500080932E0119E121C08330F1F4911108C00C
:107560008DEB90E790932F0180932E0114E015C0CE
:10757000913041F481EA90E790932F0180932E019E
:107580001CE10BC0923041F483E990E790932F0106
:1075900080932E011EE001C010E080E4809313016F
:1075A0001DC0883069F0893019F4909333010FC001
:1075B0008A3049F08B3059F48BE48093200107C066
:1075C00083E391E002C08DE191E011E003C08DE121
:1075D00091E010E090932F0180932E011F3F39F42A
:1075E000888187FD1E8180E88093130107C08F8109
:1075F000811104C08E81811708F4182F10930001A7
:107600008AC08091130187FF86C0D6DE80910E016B
:10761000D12E811708F4D82E8D1980930E01CC2419
:10762000C3948111C12C80910C01873010F4DE01CC
:107630003DC0BC2E0C2F1D2F802F8B198D1508F0EF
:1076400039C0F80161918F0180910F019091100173
:107650009C012F5F3F4F3093100120930F010DD1FC
:10766000EBCF80910F01909110018F779927892B93
:1076700039F1F894E0910F01F09110018D919D91F5
:1076800021E00C0120935700E89511247894809113
:107690000F019091100102969093100180930F01B9
:1076A0008F779927892B11F1C11018C08A2F8C1B55
:1076B0008D15B8F275DECC2071F1109200012BC04F
:1076C000F894E0910F01F091100183E0809357004E
:1076D000E895789407B600FCFDCFCBCF8A2F8C1BA2
:1076E0008D1520F380910D01882301F3F894E0912A
:1076F0000F01F0911001329785E080935700E895D3
:10770000789407B600FCFDCFF89481E18093570090
:10771000E8957894CBCF109230018091010184FFDD
:107720006FC0809100018F3F09F46AC0D82E893064
:1077300010F098E0D92E8D198093000180911401EA
:1077400098E8892780931401DD2009F44CC08091CA
:10775000130187FF2AC030DE80910E018D1508F4D9
:10776000D82E8D1980930E01C0900C01C5E1D1E097
:1077700085E191E0FC2FF81BFD15A8F400910F01A5
:107780001091100186E08C1518F4C8016ED002C06B
:10779000F8018491888321960F5F1F4F1093100189
:1077A00000930F01E5CFFCDD1EC0E0912E01F091AA
:1077B0002F0186FF0BC085E191E0DC0124912D9320
:1077C00031962D2D280F2A13F9CF09C085E191E0BC
:1077D000DC0121912D932D2D280F2A13FACFF09340
:1077E0002F01E0932E016D2D85E191E09BDC84E07B
:1077F0008D0D8C3019F09FEF909300018093010163
:1078000084E199B1947131F48150D9F7109231012A
:1078100010922B015F9A8FEF8E0D51F4FA9441F480
:10782000909112019F5F909312019AB190589AB96A
:10783000909112019E3158F490911101911102C062
:10784000E82EFBCD8EEF8E0DD9F7FA94C9F7109282
:107850008100F8941DBA1092690081E085BF15BEC1
:10786000E0910A01F0910B010995F999FECF92BDC3
:1078700081BDF89A992780B50895262FF999FECFF2
:107880001FBA92BD81BD20BD0FB6F894FA9AF99A3D
:0A7890000FBE01960895F894FFCF93
:06789A00FF5A1E950F00CD
:040000030000700089
:00000001FF